:020000040800F2
:10000000D09800204D0700082105000823050008AE
:10001000270500082B0500082F0500080000000038
:100020000000000000000000000000003305000890
:1000300035050008000000003705000839050008F4
:1000400067070008670700086707000867070008D8
:1000500067070008670700086707000867070008C8
:1000600067070008670700086707000867070008B8
:1000700067070008670700086707000867070008A8
:100080006707000867070008670700086707000898
:100090006707000867070008670700086707000888
:1000A0006707000867070008670700086707000878
:1000B0006707000867070008670700086707000868
:1000C0006707000867070008670700086707000858
:1000D000670700082B2C000867070008670700085F
:1000E0006707000867070008670700086707000838
:1000F0006707000867070008670700086707000828
:100100006707000867070008670700086707000817
:100110006707000867070008CB2C0008670700087E
:1001200067070008670700086707000867070008F7
:1001300067070008670700086707000867070008E7
:1001400067070008670700086707000867070008D7
:1001500067070008670700086707000867070008C7
:1001600067070008670700086707000867070008B7
:1001700067070008670700086707000867070008A7
:100180006707000867070008DFF80CD006F0AAFD33
:10019000004800479D010008D09800204FF4A0605F
:1001A00000F0E6FA06F01FF8A82002F059FC4FF420
:1001B000165002F0E4FC02F09BFD02F07DFF03F01C
:1001C0004BFC01E003F048FCCF4800780928F9D047
:1001D00099E1CD4800780D287DD2DFE800F07C075A
:1001E00030638EB7E0FDFCFBFAF9F8006420C649E5
:1001F000087003F05DFCAA21C44802F021FB322004
:1002000002F090FCFD21C14802F01AFB322002F0FE
:1002100089FC0121BD4802F013FB322002F082FC70
:100220000021BA4802F00CFB322002F07BFCDF21F7
:10023000B64802F005FB322002F074FC62E1642053
:10024000B149087003F0FAFC03F0DEFC03F077FC20
:1002500003F08DFC03F0A4FC03F0BCFCAA21AB4826
:1002600002F0EEFA322002F05DFCFD21A74802F018
:10027000E7FA322002F056FC0121A44802F0E0FA2D
:10028000322002F04FFC0021A04802F0D9FA3220BF
:1002900002F048FCDF219D4802F0D2FA322002F041
:1002A00041FC2FE164209849087003F02FFCAA213B
:1002B000964802F0C5FA322002F034FCFD21934842
:1002C00002F0BEFA322002F02DFC01218F4802F02C
:1002D000B7FA322000E014E102F024FC00218B4840
:1002E00002F0AEFA322002F01DFCDF21874802F056
:1002F000A7FA322002F016FC04E16420824908705B
:1003000003F01DFCAA21814802F09AFA322002F083
:1003100009FCFD217D4802F093FA322002F002FC34
:1003200001217A4802F08CFA322002F0FBFB002116
:10033000764802F085FA322002F0F4FBDF217348A0
:1003400002F07EFA322002F0EDFBDBE064206E4921
:10035000087003F00CFCAA216C4802F071FA3220FC
:1003600002F0E0FBFD21694802F06AFA322002F057
:10037000D9FB0121654802F063FA322002F0D2FB7A
:100380000021624802F05CFA322002F0CBFBDF2150
:100390005E4802F055FA322002F0C4FBB2E064205D
:1003A0005949087003F0FCFB03F0FAFBAA215748F7
:1003B00002F046FA322002F0B5FBFD21534802F06C
:1003C0003FFA322002F0AEFB0121504805E08DE0FB
:1003D00081E075E069E03DE013E002F031FA32209F
:1003E00002F0A0FB0021494802F02AFA322002F074
:1003F00099FBDF21454802F023FA322002F092FBFC
:1004000080E064204049087003F0E4FBAA213F48E3
:1004100002F016FA322002F085FBFD213B4802F083
:100420000FFA322002F07EFB0121384802F008FA70
:10043000322002F077FB0021344802F001FA32202A
:1004400002F070FBDF21314802F0FAF9322002F0AD
:1004500069FB57E064202C49087003F0D5FB03F0DA
:10046000D3FBAA21294802F0EBF9322002F05AFB13
:10047000FD21264802F0E4F9322002F053FB01216D
:10048000224802F0DDF9322002F04CFB00211F4827
:1004900002F0D6F9322002F045FBDF211B4802F0C2
:1004A000CFF9322002F03EFB2CE000201849086012
:1004B00001E003F0D1FA144800780928F9D021E0CE
:1004C00000201449086001E003F098FA0E48007813
:1004D0000A28F9D016E000200F49086001E003F077
:1004E000D2FA094800780B28F9D00BE000200B491C
:1004F000086001E003F099FA034800780C28F9D06D
:1005000000E000BF00BF64E62800002000100140AA
:1005100088160020801600207C16002084160020FB
:10052000704700BFFEE700BFFEE700BFFEE700BF69
:10053000FEE7704770477047704700000CB5002019
:10054000019000907648006840F48030744908605B
:1005500000BF7348006800F4003000900198401C10
:100560000190009818B90198B0F5A04FF1D16C48EE
:10057000006800F4003010B10120009001E000207C
:1005800000900098012846D165484030006840F04E
:1005900080506349403108606248006840F4404040
:1005A000604908605E48083000685D4908310860AD
:1005B0000846006840F4004008600846006840F4BF
:1005C000A05008605848091F0860081F006840F0E4
:1005D0008070091F086000BF5148006800F000707B
:1005E0000028F9D040F20570504908604C480830A6
:1005F000006820F003004A49083108600846006896
:1006000040F00200086000BF45480830006800F074
:100610000C000828F8D10CBD10B54548006840F41E
:100620007000434908603E48006840F001003C49C2
:10063000086000203A4908310860394800683D499F
:100640000840374908603C48091D0860081F0068D9
:1006500020F48020091F0860002031490C31086017
:10066000FFF76CFF4FF0006031498039086010BD22
:1006700070B500200022022300240221284D0835F5
:100680002D6805F00C0020B1042806D0082834D1CC
:1006900007E02A4D2A4E356033E02A4D284E35605A
:1006A0002FE01F4D2D1D2D68C5F380541C4D2D1DB1
:1006B0002D6805F03F0154B1224DB5FBF1F5184E00
:1006C000361D3668C6F3881605FB06F209E01B4D99
:1006D000B5FBF1F5124E361D3668C6F3881605FBDC
:1006E00006F20F4D2D1D2D68C5F301456D1C6B00E5
:1006F000B2FBF3F5124E356003E0104D104E35603D
:1007000000BF00BF064D08352D68C5F303150E4E1A
:10071000705D0B4D2D68C540094E356070BD000001
:10072000003802400070004008544007003C02407E
:1007300088ED00E0FFFFF6FE103000240024F400F6
:100740000000002000127A000400002006488047C4
:1007500006480047FEE7FEE7FEE7FEE7FEE7FEE7A6
:10076000FEE7FEE7FEE7FEE719060008890100083C
:1007700032490143324A1160704770B500210023AD
:100780000F22C4781CB32E4C246804F4E064C4F532
:10079000E064C4F30721C1F10404E3B20A414478E0
:1007A0009C40E1B28478144021430C07210E254C73
:1007B00005786155047804F01F050124AC400578E4
:1007C0006D11AD0005F1E025C5F8004109E00478A0
:1007D00004F01F050124AC401B4D0678761145F846
:1007E000264070BD194A0A400243154B1B1F1A6070
:1007F000704739B1124A121D12680243104B1B1D7B
:100800001A6006E00E4A121D126882430C4B1B1D33
:100810001A607047042808D14FF0E021096941F0BF
:1008200004014FF0E022116107E04FF0E021096977
:1008300021F004014FF0E022116170470000FA0539
:100840000CED00E000E400E080E100E080FFFF1F2D
:10085000016821F0010101600021016041608160B7
:10086000C160016121214161DB49884204D13D2100
:10087000D94A103A91608CE0D7491831884205D1A5
:100880004FF47461D44A103A916082E0D249303119
:10089000884205D14FF47411CF4A103A916078E044
:1008A000CD494831884205D14FF07461CA4A103AA7
:1008B00091606EE0C8496031884204D1C749C64A98
:1008C000103AD16065E0C4497831884204D1C44906
:1008D000C14A103AD1605CE0BF499031884204D1EE
:1008E000C049BD4A103AD16053E0BB49A8318842A3
:1008F00005D14FF03D51B84A103AD16049E0BA49AC
:10090000884204D13D21B84A083A116041E0B64915
:100910001831884205D14FF47461B34A083A116026
:1009200037E0B1493031884205D14FF47411AE4AF5
:10093000083A11602DE0AC494831884205D14FF0AA
:100940007461A94A083A116023E0A74960318842DE
:1009500004D1A249A44A121F11601AE0A2497831B9
:10096000884204D19E49A04A121F116011E09E499D
:100970009031884204D19B499B4A121F116008E0C4
:100980009949A831884204D14FF03D51964A121F2F
:100990001160704710B500220268944B1A40CC6871
:1009A0000B6823434C6923438C692343CC6923435D
:1009B0000C6A23434C6A23438C6A23434C6B2343C6
:1009C0008C6B23431A430260426922F00702D1E98B
:1009D0000B3423431A4342610B6943604B688360C5
:1009E0008B68C36010BD0021016041608160C160FF
:1009F000016141618161C161016241628162C162E3
:100A0000016341638163704721B1026842F00102D2
:100A1000026003E0026822F001020260704721B127
:100A2000026842F40042026003E0026822F40042DD
:100A30000260704721B1026842F02002026003E0C8
:100A4000026822F020020260704741607047014650
:100A5000486880B2704722B1036843F40023036002
:100A600003E0036823F4002303600161704721B1B0
:100A7000026842F48022026003E0026822F48022CD
:100A8000026070470AB1016100E0C1607047014631
:100A900000200A6802F400220AB1012000E00020D0
:100AA0007047014600200A6802F001020AB10120E5
:100AB00000E000207047014600204A6902F038003B
:100AC000704730B503460A4600200024464DAB422D
:100AD00002D24149103901E04349103902F0005572
:100AE0000DB14C6800E00C68414D2C4004EA020551
:100AF0000DB1012000E0002030BD02463A4B9A4281
:100B000002D23548103801E03748103801F0005360
:100B10001BB1374B0B40C36002E0354B0B40836089
:100B2000704710B501F080034BB122B1436943F027
:100B30008003436103E0436923F08003436180291C
:100B40000BD02AB1036801F01E042343036004E0C4
:100B5000036801F01E04A343036010BD70B5024694
:100B6000002000240025204EB24202D21A4B103B36
:100B700001E01D4B103B1F4E0E4036B11E2606EA0B
:100B8000D124166806EA040502E0566906F08005DD
:100B900001F000560EB15C6800E01C68144E344051
:100BA00004EA010616B10DB1012000E0002070BD7D
:100BB00002460D4B9A4202D20748103801E00A481B
:100BC000103801F000531BB1094B0B40C36002E029
:100BD000074B0B4083607047106002403D000020CF
:100BE000400F002000003D20106402403F801CF0B8
:100BF0007D0F7D0F3C0F3C0F10B504469848844292
:100C000008D10121084600F086FB0021012000F0F8
:100C100082FB76E09348844208D10121022000F053
:100C20007AFB0021022000F076FB6AE08E488442C5
:100C300008D10121042000F06EFB0021042000F007
:100C40006AFB5EE08948844208D10121082000F057
:100C500062FB0021082000F05EFB52E084488442E1
:100C600008D10121102000F056FB0021102000F0D7
:100C700052FB46E07F48844208D10121202000F049
:100C80004AFB0021202000F046FB3AE07A488442EB
:100C900008D10121402000F03EFB0021402000F05F
:100CA0003AFB2EE07548844208D10121802000F0F3
:100CB00032FB0021802000F02EFB22E070488442AD
:100CC00008D10121801500F026FB0021A01500F0BD
:100CD00022FB16E06B48844208D10121401500F048
:100CE0001AFB0021601500F016FB0AE066488442FA
:100CF00007D10121001500F00EFB0021201500F0A6
:100D00000AFB10BDF0B50A4600210023002400BFF5
:100D10003DE0012505FA01F3156805EA03049C424C
:100D200034D105684F000326BE40B54305601579F0
:100D30004E00B5400668354305601579012D02D097
:100D40001579022D16D185684F000326BE40B543A4
:100D5000856055794E00B5408668354385604568A5
:100D600001268E40B5434560456896798E40B6B2FF
:100D700035434560C5684F000326BE40B543C56096
:100D8000D5794E00B540C6683543C560491C102969
:100D9000BFD3F0BD4FF6FF710160002101714171B9
:100DA0008171C171704708B54FF480320092009A8A
:100DB0000A430092009AC261C161009AC261C2698D
:100DC0000092C269009208BD0246002013690B40E0
:100DD0000BB1012000E0002070470146086980B295
:100DE00070470246002053690B400BB1012000E020
:100DF000002070470146486980B270470183704700
:100E0000418370470AB1018300E04183704741612B
:100E1000704742694A4042617047F0B500230024A0
:100E20004D07ED0E02FA05F3CE1000F1200555F83E
:100E300026504E07F70E0F26BE40B543CF1000F1E7
:100E4000200646F82750CE1000F1200555F8265010
:100E500045EA0304CE1000F1200545F82640F0BD18
:100E6000000002400004024000080240000C024062
:100E7000001002400014024000180240001C024012
:100E8000002002400024024000280240F948006887
:100E900040F00100F74908600020F6490831086079
:100EA000F4480068F4490840F2490860F348091D15
:100EB0000860F348EF4984310860F0481038091D94
:100EC0000860EC48006820F48020EA4908600020AF
:100ED000E8490C310860E7498C310860704700210F
:100EE000E44A921C117011460870704710B5014613
:100EF0000022002300204A11012A02D1DD4C236880
:100F000008E0022A03D1DB4C7034236802E0D94C9C
:100F10007434236801F01F02012494401C400CB17A
:100F2000012000E0002010BD38B500200090002412
:100F3000002500BF3120FFF7D9FF05460098401C6F
:100F400000900098B0F5A04F01D0002DF2D03120D4
:100F5000FFF7CCFF08B1012400E00024204638BD93
:100F600001460020C34A106820F0F80040EAC100A2
:100F700010607047C349086070470021BD4A703255
:100F800011701170012802D004280AD104E0012157
:100F9000B84A7032117005E00521B64A70321170FE
:100FA00000E000BF00BF7047B7490860704770B5E8
:100FB000049C41EA82150126C6EB530645EA064524
:100FC000054345EA0465AB4E361D356070BDAD493D
:100FD00008667047820142EA0172A64B84331A60A8
:100FE0007047A8498866704710B5830143EA0163DA
:100FF00043EA02739F4C8834236010BDA1490867FF
:101000007047A049C864704702460020994B0833D6
:10101000186820F0EC6042EA01031843954B08334E
:101020001860704702460020924B0833186820F081
:10103000784042EA010318438E4B0833186070472A
:10104000014600208B4A0832106820F00300084354
:101050001060704787480830006800F00C00704747
:1010600001460020834A0832106820F0F00008434F
:1010700010607047014600207E4A0832106820F454
:10108000E05008431060704701460020794A08325A
:10109000106820F4604040EAC10010607047F0B56D
:1010A000002100220024022500260223714F083768
:1010B0003F6807F00C0121B1042905D0082937D178
:1010C00005E0724F076036E0714F076033E0694F0B
:1010D0003F1D3F68C7F38056664F3F1D3F6807F0CE
:1010E0003F036EB16A4FB7FBF3F7DFF888C10CF12D
:1010F000040CDCF800C0CCF3881C07FB0CF40CE0FB
:10110000624FB7FBF3F7DFF86CC10CF1040CDCF8AD
:1011100000C0CCF3881C07FB0CF4564F3F1D3F6802
:10112000C7F301477F1C7D00B4FBF5F7076002E0C1
:10113000564F076000BF00BF4E4F08373F6807F0AB
:10114000F0010909534F7A5C0768D7404760494F5F
:1011500008373F6807F4E051890A4E4F7A5C4768C8
:10116000D7408760434F08373F6807F46041490B19
:10117000484F7A5C4768D740C760F0BD002100F453
:101180004072B2F5407F0AD13A4A0832116821F420
:10119000F811414A02401143364A08321160354A7B
:1011A00070321268C0F30B031A43324B70331A606B
:1011B0007047354944390860704733494039086001
:1011C000704736490860704701460020294A8C3232
:1011D000106820F01F004A1E1043264A8C3210600F
:1011E000704701460020234A8C32106820F4F850E2
:1011F0004A1E40EA02201F4A8C32106070470146A6
:1012000000201C4A8C32106820F440100843106003
:10121000704701460020174A8C32106820F44000C5
:1012200008431060704701460020124A8C32106853
:1012300020F4403008431060704719490860704737
:1012400039B10C4A3032126802430A4B30331A600B
:1012500006E0084A303212688243064B30331A6087
:101260007047F9B1034A343212680243014B3433F8
:101270001A601CE000380240FFFFF6EA103000243C
:101280000030002000004742800E47420024F40056
:1012900000127A0014000020FFFCFF0F5C0147429F
:1012A000E01147428F4A126882438E4B1A607047A2
:1012B00039B18C4A121D126802438A4B1B1D1A60F9
:1012C00006E0884A121D12688243864B1B1D1A6075
:1012D000704739B1834A0C3212680243814B0C3398
:1012E0001A6006E07F4A0C32126882437D4B0C3351
:1012F0001A60704739B17B4A103212680243794B49
:1013000010331A6006E0774A103212688243754B38
:1013100010331A60704739B1724A243A1268024396
:10132000704B243B1A6006E06E4A243A12688243EE
:101330006C4B243B1A60704739B16A4A203A1268F4
:101340000243684B203B1A6006E0664A203A126866
:101350008243644B203B1A60704739B1614A1C3AA2
:10136000126802435F4B1C3B1A6006E05D4A1C3A60
:10137000126882435B4B1C3B1A60704739B1594A73
:10138000143A12680243574B143B1A6006E0554A60
:10139000143A12688243534B143B1A60704739B1B8
:1013A000504A103A126802434E4B103B1A6006E056
:1013B0004C4A103A126882434A4B103B1A607047FD
:1013C00039B1484A1C3212680243464B1C331A603A
:1013D00006E0444A1C3212688243424B1C331A60B6
:1013E000704739B13F4A2032126802433D4B2033E7
:1013F0001A6006E03B4A203212688243394B2033A0
:101400001A60704739B1374A243212680243354BAB
:1014100024331A6006E0334A243212688243314B87
:1014200024331A60704739B12E4A2C3212680243B5
:101430002C4B2C331A6006E02A4A2C321268824365
:10144000284B2C331A60704739B1264A3032126863
:101450000243244B30331A6006E0224A30321268CD
:101460008243204B30331A607047012808D11D4950
:101470003C31096841F008011A4A3C32116007E02A
:1014800018493C31096821F00801164A3C321160C4
:10149000704739B1134A273A12780243114B273B60
:1014A0001A7006E00F4A273A127882430D4B273B09
:1014B0001A7070470B484030006840F0807009494E
:1014C00040310860704701460020064A283A1268F9
:1014D0000A400AB1012000E0002070470149263986
:1014E000087070473438024010B50446FB48844207
:1014F00008D101218014FFF752FF0021A014FFF74B
:101500004EFF3CE0F648844208D101210014FFF769
:1015100035FF00212014FFF731FF30E0F14884420D
:1015200008D10121C013FFF729FF0021E013FFF7C5
:1015300025FF24E0EC48844208D101214014FFF744
:101540002EFF00216014FFF72AFF18E0E7488442CD
:1015500009D101210805FFF722FF00214FF4801077
:10156000FFF71DFF0BE0E248844208D10121480546
:10157000FFF715FF00214FF40010FFF710FF10BD1B
:1015800010B50022028802F441520B884C88234394
:101590008C882343CC8823430C8923434C892343E1
:1015A0008C892343CC8923431A430280838B4FF2D7
:1015B000FF74234083830B8A038210BD2DE9F04F13
:1015C0000025022300244FF00109002200260027F5
:1015D00094469046B0F81CA04FF2400B0AEA0B0A62
:1015E000A0F81CA04FF0020AA0F820A0858BD1F82B
:1015F00008A0BAF1020F01D100BF82E0B1F804A047
:10160000BAF1000F02D14FF0010901E04FF00209D9
:10161000DFF8E0A2DAF800A00AF4000ABAF1000F3D
:1016200009D0DFF8D0A2DAF800A02AF4000ADFF827
:10163000C4B2CBF800A0DFF8BCA20AF17C0ADAF849
:1016400000A0CAF3881CDFF8ACA20AF17C0ADAF821
:1016500000A0CAF30278DFF89CA2AAF1040ADAF823
:1016600000A00AF03F07DFF88CA2AAF1040ADAF81A
:1016700000A00AF4800ABAF5800F08D1DFF878A23A
:10168000BAFBF7FA0AFB0CFABAFBF8F607E0DFF848
:101690006CA2BAFBF7FA0AFB0CFABAFBF8F6B1F83F
:1016A00006A0BAF5007F0ED14FEA162A0AEB8A0A85
:1016B0004FEA4A0AD1F808B0BAFBFBFA0AF1050A68
:1016C0001FFA8AF20FE04FEA491AB6FBFAFA0AEB60
:1016D0008A0A4FEA4A0AD1F808B0BAFBFBFA0AF1C3
:1016E000050A1FFA8AF24FF00A0AB2FBFAF202F078
:1016F0000104A2EB040ACAF34F034FF6FF7A0AEA89
:101700000424022B01DBFF2B01DD02230024B1F8AE
:1017100006A04AEA040A4AEA030AA0F820A0B1F89F
:1017200004A0B1F80CB04AEA0B0AB1F802B04AEAD8
:101730000B0AB1F800B04AEA0B0A4AF4006A4AEA16
:1017400005058583BDE8F08F0021018041808180FF
:10175000C180018141818181C1810721018270475E
:101760000021018041808180C180022181600021AF
:101770008181704721B1028842F04002028004E07A
:1017800002884FF6BF731A400280704721B1828BE6
:1017900042F48062828304E0828B4FF6FF331A406A
:1017A0008283704702884FF2FF731A4002800288DA
:1017B0000A4302807047B1F5804F04D1028842F499
:1017C0008042028004E002884BF6FF731A400280D8
:1017D00070474FF6FF62914204D0028842F4807253
:1017E000028004E002884FF6FF631A4002807047CF
:1017F00021B1828842F00402828004E082884FF6A0
:10180000FB731A408280704721B1828842F0100237
:10181000828004E082884FF6EF731A40828070471E
:1018200030B500220023848B4FF240052C40848386
:1018300002240484828B0C88B4F5007F01D00C88CC
:1018400014B94FF4807308E00C88B4F5407F03D0DE
:101850000C88B4F5807F00D100238C888D892C43BF
:101860004D882C431C4344F400642243828330BDE2
:101870000146888970478181704721B1028842F40E
:101880000052028004E002884DF6FF731A40028085
:101890007047018841F48051018070470246002062
:1018A000012901D0108B00E0908A70470146088A18
:1018B00070471AB183880B43838002E083888B438F
:1018C0008380704730B5002400230C110125A5400A
:1018D000ABB2AAB185881D43858014E00030014079
:1018E00000380040003C00400034014000500140FE
:1018F000005401400838024000127A000024F4002D
:1019000085889D43858030BD0246002013890B40A9
:101910000BB1012000E000207047CA4302817047EC
:10192000F0B50246002000240023002501F00F0737
:101930000126BE40B4B20B1101269E40B3B2968878
:1019400006EA03051689264016B10DB1012000E014
:101950000020F0BD10B5002201F00F040123A340C8
:101960009AB2D343038110BD10B50446FE488442A9
:1019700008D101210846FFF712FD00210120FFF7E1
:101980000EFD9DE0B4F1804F08D101210846FFF71C
:10199000F5FC00210120FFF7F1FC91E0F3488442BF
:1019A00008D101210220FFF7E9FC00210220FFF706
:1019B000E5FC85E0EE48844208D101210420FFF7D0
:1019C000DDFC00210420FFF7D9FC79E0E9488442DE
:1019D00008D101210820FFF7D1FC00210820FFF7E2
:1019E000CDFC6DE0E448844208D101211020FFF7CE
:1019F000C5FC00211020FFF7C1FC61E0DF488442F4
:101A000008D101212020FFF7B9FC00212020FFF799
:101A1000B5FC55E0DA48844208D101210220FFF7E5
:101A2000BEFC00210220FFF7BAFC49E0D548844201
:101A300009D101210804FFF7B2FC00214FF48030E6
:101A4000FFF7ADFC3CE0D048844209D101214804B5
:101A5000FFF7A5FC00214FF40030FFF7A0FC2FE0BA
:101A6000CA48844209D101218804FFF798FC00216B
:101A70004FF48020FFF793FC22E0C548844208D150
:101A800001214020FFF77AFC00214020FFF776FC7F
:101A900016E0C048844208D101218020FFF76EFC87
:101AA00000218020FFF76AFC0AE0BB48844207D18E
:101AB00001218015FFF762FC0021A015FFF75EFCF5
:101AC00010BD00220288A84B98420ED0AC4B984221
:101AD0000BD0B0F1804F08D0A44B984205D0A44B56
:101AE000984202D0A34B984204D14FF68F731A400C
:101AF0004B881A43A04B984207D0A04B984204D081
:101B00004FF6FF431A400B891A4302804B68C362A9
:101B10000B880385944B984202D0994B984201D18F
:101B20008B7A03860123838270474FF0FF31416037
:101B3000002101800181418081727047018582828C
:101B400070470A46002101884FF68F7319401143F0
:101B50000180704741627047C16270470146486A20
:101B600070470146088D704721B1028842F0020299
:101B7000028004E002884FF6FD731A40028070472D
:101B800021B1028842F00402028004E002884FF68C
:101B9000FB731A400280704721B1028842F0800234
:101BA000028004E002884FF67F731A40028070477B
:101BB00002884FF6F7731A40028002880A430280B7
:101BC000704702884FF6FF431A40028002880A439A
:101BD0000280704721B1028842F00102028004E0D5
:101BE00002884FF6FE731A400280704770B50024D9
:101BF00000220023058C4FF6FE7635400584028CCA
:101C00008388048B4FF68F752C40B51E2C400D88B1
:101C10002C43751E2A408D892A434D882A43524DF4
:101C2000A84202D0564DA84213D14FF6F7752A406C
:101C3000CD892A434FF6FB752A408D882A434FF6FB
:101C4000FF652B404FF6FF552B400D8A2B434D8AE5
:101C50002B43838004838D684563028470BD70B517
:101C6000002400220023058C4FF6EF7635400584D2
:101C7000028C8388048B48F6FF752C404FF6FF4595
:101C80002C400D884FF6FF7606EA05252C434FF6CB
:101C9000DF752A408D8906EA05152A434D8806EA34
:101CA00005152A43304DA84202D0354DA8421DD11A
:101CB0004FF67F752A40CD894FF6FF7606EA051567
:101CC0002A434FF6BF752A408D8806EA05152A4338
:101CD0004FF6FF352B404FF2FF752B400D8A06EA79
:101CE00085052B434D8A06EA85052B4383800483B3
:101CF0008D688563028470BD70B5002400220023C6
:101D0000058C4FF6FF6635400584028C8388848BF2
:101D10004FF68F752C404FF6FC752C400D882C43E8
:101D20004FF6FF552A408D894FF6FF7606EA0525C6
:101D30002A434D8806EA05252A430B4DA84202D0C6
:101D40000F4DA84238D14FF2FF752A40CD894FF68A
:101D5000FF7606EA05252A434FF6FF352A408D888F
:101D600006EA05252A4319E000000140000400406E
:101D700000080040000C004000100040001400402B
:101D8000000401400040014000440140004801407F
:101D900000180040001C0040002000404EF6FF7577
:101DA0002B404DF6FF752B400D8A06EA05152B4397
:101DB0004D8A06EA05152B43838084838D68C563AD
:101DC000028470BD70B5002200230024058C4EF6FD
:101DD000FF7635400584038C8488828B48F6FF7536
:101DE0002A404FF6FF452A400D884FF6FF7606EA57
:101DF00005252A434DF6FF752B408D8906EA0535EA
:101E00002B434D8806EA05352B43FE4DA84202D0F0
:101E1000FD4DA84208D14BF6FF752C400D8A4FF6B8
:101E2000FF7606EA85152C43848082838D680564DD
:101E3000038470BD002101804180818081608181A7
:101E4000C18101824182704770B5034600200024A1
:101E50001846183001258D40ACB21D8CA5431D8459
:101E600009B108290AD100EB610005684FF68F76A9
:101E7000354005600568154305600FE00D1FC5F38B
:101E80004E052844056848F6FF763540056005682C
:101E90004FF6FF7606EA02263543056070BD4163C2
:101EA000704781637047C1637047016470470A4699
:101EB0000021018B4FF68F73194011430183704746
:101EC0000A460021018B48F6FF7319404FF6FF7355
:101ED00003EA02231943018370470A460021818BDC
:101EE0004FF68F7319401143818370470A460021D2
:101EF000818B48F6FF7319404FF6FF7303EA022304
:101F00001943818370470A460021018B4FF6F7730E
:101F100019401143018370470A460021018B4FF29B
:101F2000FF7319404FF6FF7303EA0223194301833D
:101F300070470A460021818B4FF6F7731940114311
:101F4000818370470A460021818B4FF2FF7319404D
:101F50004FF6FF7303EA02231943818370470A4651
:101F60000021018B4FF6FB73194011430183704729
:101F70000A460021018B4FF6FF3319404FF6FF73DD
:101F800003EA02231943018370470A460021818B2B
:101F90004FF6FB7319401143818370470A460021B5
:101FA000818B4FF6FF3319404FF6FF7303EA02238C
:101FB0001943818370470A460021018B4FF67F73D6
:101FC00019401143018370470A460021018BC1F378
:101FD0000E014FF6FF7303EA022319430183704792
:101FE0000A460021818B4FF67F731940114381838C
:101FF00070470A460021818BC1F30E014FF6FF7333
:1020000003EA02231943818370470A460021018CA9
:102010004FF6FD7319401143018470470A460021B1
:10202000018C4FF6F77319401143018470470A463B
:102030000021018C4FF6DF7319404FF6FF7303EA5E
:1020400002131943018470470A460021018C4FF6A0
:102050007F7319404FF6FF7303EA0213194301849B
:1020600070470A460021018C4FF6FF5319404FF686
:10207000FF7303EA02231943018470470A460021D3
:10208000018C4FF2FF7319404FF6FF7303EA0223EE
:102090001943018470470A460021018C4DF6FF73F5
:1020A00019404FF6FF7303EA023319430184704766
:1020B00030B5002301248C40A3B2048C9C430484DB
:1020C000048C02FA01F5ADB22C43048430BD30B566
:1020D000002304248C40A3B2048C9C430484048C0D
:1020E00002FA01F5ADB22C43048430BD828B4FF26D
:1020F000FF331A408283828B4FF6FF7303EA01237A
:102100001A4382837047F0B50C4615460021002221
:102110000026078C4EF6FF7C07EA0C070784818BAC
:10212000028C4FF6FF7707EA043640F6FF47394046
:102130004FF6FF7707EA052739434FF6FF7707EA9F
:102140000337394345F6FF773A4046F480573A4320
:1021500081830284F0BD828B4FF6F3731A40828331
:10216000828B0A4382837047F0B50C4615460021E6
:1021700000220026078C4FF6FF6C07EA0C07078445
:10218000818B028C4FF6FF7707EA04264FF60C7717
:1021900039404FF6FF7707EA03172F4339434FF2D1
:1021A000FF573A4046F480773A4381830284F0BD7A
:1021B000028B4FF2FF331A400283028B4FF6FF73FC
:1021C00003EA01231A4302837047F0B50C46154613
:1021D000002100220026078C4FF6EF7C07EA0C074F
:1021E0000784018B028C4FF6FF7707EA041640F64E
:1021F000FF4739404FF6FF7707EA033739434FF679
:10220000FF7703E0000001400004014007EA0527D2
:1022100039434FF65F773A4046F010073A4301835F
:102220000284F0BD028B4FF6F3731A400283028BD7
:102230000A4302837047F0B50C4615460021002280
:10224000068C4FF6FE773E400684018B028C4FF6DB
:102250000C7631407E1C06EA03162E4331434FF6BE
:10226000F576324044F00106324301830284F0BD2A
:1022700070B505460C46208850B92389A28861882C
:102280002846FFF7D8FFE1882846FFF7CBFF25E077
:10229000208804280AD12389A28861882846FFF76C
:1022A00094FFE1882846FFF783FF17E0208808287D
:1022B0000AD12389A28861882846FFF755FFE18863
:1022C0002846FFF748FF09E02389A288618828464D
:1022D000FFF719FFE1882846FFF708FF70BD0021CE
:1022E00001804180012181800021C18001817047EE
:1022F0002DE9F04105460C4600260127608808B903
:10230000022600E00026A088012801D1022700E073
:1023100001272088A0B92389A28861882846FFF771
:102320008AFFE1882846FFF77DFF23893A46314638
:102330002846FFF74AFFE1882846FFF739FF13E0F8
:102340002389A28861882846FFF73FFFE188284655
:10235000FFF72EFF23893A4631462846FFF76BFFE9
:10236000E1882846FFF75EFFBDE8F0810146486B33
:1023700070470146886B70470146C86B704701463D
:10238000086C70470A884B881A438B881A43CB889D
:102390001A430B891A434B891A438B891A43A0F8B5
:1023A000442070470021018041808180C1800181EB
:1023B00041818181704731B1B0F8442042F400423C
:1023C000A0F8442005E0B0F84420C2F30E02A0F8C3
:1023D0004420704721B1828842F00402828004E0E8
:1023E00082884FF6FB731A408280704721B1828841
:1023F00042F00102828004E082884FF6FE731A40A8
:10240000828070471AB183890B43838102E08389FC
:102410008B43838170478182704702460020138A74
:102420000B400BB1012000E000207047CA4302823C
:10243000704730B50246002000230024158A05EAC3
:102440000103958905EA010413B10CB1012000E0F4
:10245000002030BDCA430282704741EA0203A0F85F
:10246000483070471AB183890B43838102E0838926
:102470008B438381704721B1828842F008028280B9
:1024800004E082884FF6F7731A4082807047018912
:102490004FF6F8721140018170470A460021018908
:1024A0004FF68F73194011430181704730B50446D0
:1024B0000D4629462046FFF7F0FF208940F007002F
:1024C000208130BD2DE9F04104460D4616461F46D9
:1024D000602D06D13B46012231462046FFF775FEAE
:1024E00005E03B46012231462046FFF7A4FE29467F
:1024F0002046FFF7D2FF208940F007002081BDE889
:10250000F08130B50C4600210189C9B24FF6FF7544
:1025100005EA0325154325432943018130BD2DE9F3
:10252000F04105460E4617469846002443463A4673
:1025300031462846FFF7E5FF2C894FF6F870044036
:1025400044F007044FF68F70044044F070042C816F
:10255000BDE8F081F0B504460D4616461F463B46E1
:10256000324629462046FFF7CCFF208940F48040C0
:102570002081F0BD82884FF68F731A408280828856
:102580000A438280704702894FF6F8731A4002812D
:1025900002890A430281704702894FF67F731A400D
:1025A000028102890A4302817047F0B50C46154644
:1025B0001E460021002200230189028B038C4FF666
:1025C000F877394021434FF6FC473A4040F2011773
:1025D0003A434FF6DD773B404FF6FF7707EA0617A1
:1025E0002F433B43018102830384F0BD21B18288E4
:1025F00042F08002828004E082884FF67F731A40A6
:1026000082807047A0F850107047000010B5044653
:10261000FA48844208D101211020FEF7C0FE0021B3
:102620001020FEF7BCFE57E0F548844209D1012195
:102630004804FEF7A3FE00214FF40030FEF79EFE93
:102640004AE0F048844209D101218804FEF796FE51
:1026500000214FF48020FEF791FE3DE0EA488442DD
:1026600009D10121C804FEF789FE00214FF40020A2
:10267000FEF784FE30E0E548844209D101210805D7
:10268000FEF77CFE00214FF48010FEF777FE23E07A
:10269000DF48844208D101212020FEF780FE00217E
:1026A0002020FEF77CFE17E0DA48844209D10121A0
:1026B0008807FEF763FE00214FF08040FEF75EFEC4
:1026C0000AE0D548844207D101214005FEF756FEB5
:1026D00000216005FEF752FE10BD2DE9FF470546BB
:1026E0000E460024A14600BFA046B08900B100BF3D
:1026F0002C8A24F44054F08804432C82AC8941F2A3
:102700000C608443B08831890843718908430443CD
:10271000AC81AC8A24F44074B0890443AC8268462E
:10272000FEF7BDFCB548854202D0B948854202D1CA
:10273000DDF80C9001E0DDF80890A88900F4004075
:1027400040B109EBC90000EB091031684900B0FB4A
:10275000F1F707E009EBC90000EB091031688900C7
:10276000B0FBF1F76420B7FBF0F00401200964210D
:1027700001FB1078A88900F4004040B1322000EB42
:10278000C800B0FBF1F000F00700044308E032207D
:1027900000EB08106421B0FBF1F000F00F000443DF
:1027A0002C81BDE8FF874FF4165101600021818024
:1027B000C18001810C21418100218181704710B5C8
:1027C00002460020108A20F470600B884C88234356
:1027D0008C882343CC8823431843108210BD0021EA
:1027E000018041808180C180704721B1828942F49B
:1027F0000052828104E082894DF6FF731A40828183
:102800007047028B02F47F420283028B0A430283E9
:10281000704721B1828942F40042828103E08289BB
:10282000C2F30E028281704721B1828A42F40062B3
:10283000828204E0828A4FF2FF731A4082827047DC
:10284000C1F308028280704701468888C0F30800FF
:102850007047028A4FF6F0731A400282028A0A43D6
:102860000282704721B1828942F00202828104E033
:1028700082894FF6FD731A408281704782894FF238
:10288000FF731A40828182890A4382817047028ADB
:102890004FF6DF731A400282028A0A4302827047AF
:1028A00021B1028A42F48042028204E0028A4BF69D
:1028B000FF731A4002827047818941F001018181D2
:1028C000704721B1828A42F00802828204E0828A43
:1028D0004FF6F7731A4082827047028BD2B202839E
:1028E000028B42EA01220283704721B1828A42F0C0
:1028F0002002828204E0828A4FF6DF731A408282CD
:10290000704721B1828A42F01002828204E0828AFA
:102910004FF6EF731A4082827047828A4FF6FB733C
:102920001A408282828A0A438282704721B1828A57
:1029300042F00202828204E0828A4FF6FD731A405E
:10294000828270471AB1838A0B43838202E0838AB2
:102950008B4383827047F0B5034600240026002590
:10296000002040F66A17B94200D100BF1846C1F3F3
:10297000421401F01F06012707FA06F5012C01D1C8
:102980000C3004E0022C01D1103000E014301AB1F8
:1029900007682F43076002E00768AF430760F0BD98
:1029A00002460020B1F5007F00D100BF13880B4024
:1029B0000BB1012000E00020704701F40072B2F575
:1029C000007F00D100BFCA430280704770B5024645
:1029D000002400230025002040F66A16B14200D1F1
:1029E00000BFC1F3421501F01F03012606FA03F3ED
:1029F000012D13D19689334017E0000000100140EB
:102A00000044004000480040004C0040005000409E
:102A10000014014000780040007C0040022D02D1EB
:102A2000168A334001E0968A33400C12012606FADA
:102A300004F41688344013B10CB1012000E00020EA
:102A400070BD10B50022002340F66A14A14200D1E7
:102A500000BF0A1201249440A3B2DC43048010BDDD
:102A600010B504466FF00400FDF7D4FEE11704EB47
:102A70005171C1F3C701394A11701046007800EB5B
:102A80004001C1EBC0104FF6FF7101EAC0003449AC
:102A9000088010BD0146314A12784A434FF0E023C6
:102AA0005A6100229A611A46126942F001021A61C3
:102AB00000BF4FF0E022106900F001021AB100F4EB
:102AC0008032002AF5D04FF0E022126922F0010294
:102AD0004FF0E0231A6100229A6170470146204AB4
:102AE00012884A434FF0E0235A6100229A611A4645
:102AF000126942F001021A6100BF4FF0E022106932
:102B000000F001021AB100F48032002AF5D04FF033
:102B1000E022126922F001024FF0E0231A61002244
:102B20009A61704770B504464FF4077094FBF0F05B
:102B3000C6B24FF4077094FBF0F100FB114085B270
:102B400005E04FF40770FFF7C9FF701EC6B2002EF4
:102B5000F7D115B12846FFF7C1FF70BD2400002052
:102B60002600002000BF704700BF3C4A128802F0D8
:102B70004002002AF9D0C2B2384B9A80704710B593
:102B800088B0044601210846FEF75AFB01211020B7
:102B9000FEF7B0FB072209213148FEF73EF9072274
:102BA0000A212F48FEF739F94FF4C0600690022041
:102BB0008DF81C008DF81D0000208DF81E000120EE
:102BC0008DF81F0006A92648FEF79CF80294002005
:102BD000ADF80C00ADF80E00ADF81000ADF8140023
:102BE0000C20ADF8120002A91C48FFF776FD012168
:102BF0001A48FFF7FAFD40211848FFF7DEFE0122D0
:102C000040F225511548FFF7A6FE25208DF8040057
:102C100003208DF805008DF8060001208DF80700CF
:102C200001A8FDF7AAFD08B010BD10B5002440F2C0
:102C300025510A48FFF7CAFE70B140F225510748F6
:102C4000FFF7FFFE05488088C4B2DF2C04D0FD2CBE
:102C500002D00CB10348047010BD00000010014008
:102C6000000002402800002008B54FF4E060FDF7A6
:102C70007FFD36208DF8000000208DF80100032034
:102C80008DF8020001208DF803006846FDF775FD00
:102C900008BD3EB505460C4601211020FEF719FB84
:102CA0000195ADF8004069460F48FEF70AFF012183
:102CB0000D48FFF7BBFB012211460B48FFF7A2FBB3
:102CC00001210948FEF786FF3EBD10B501210648E7
:102CD000FFF7AFFB30B10120044908600121024831
:102CE000FFF7A4FB10BD00000010004038000020DA
:102CF0001CB501211C20FEF7A3FA01208DF8040069
:102D000000208DF8060001208DF8070003208DF8C3
:102D100005004FF48070009069462A48FDF7F2FFE5
:102D20000420009069462848FDF7ECFF0820009039
:102D300069462548FDF7E6FF802000906946214856
:102D4000FDF7E0FF0020214908604020009069461F
:102D50001C48FDF7D7FF00201D49C1F898024FF429
:102D60000040009069461B48FDF7CCFF01201A493E
:102D700008601CBD10B5154B1B1D1860174BC3F820
:102D80008812174B1A600123104C23600023236024
:102D900010BD01200D49091F086000200C49C1F831
:102DA00098020D490860704701200B490860704780
:102DB00001200649091F086000200549C1F8980252
:102DC0007047000000080240001002409C0241428F
:102DD00000004142000C0240BC82414200004242DD
:102DE0008C02424210B5AC49002001F0CAFFAB4949
:102DF000087010BD10B5A849002001F0C2FF10BD39
:102E000010B5044601222146A54801F0CDFF10BDB2
:102E100010B5A44B4FF42252A349A14802F07BF80D
:102E200010BD10B59E4802F0D9FA10BD10B50021B2
:102E300000BF0FE09C48405C392805DC9A48405CA4
:102E40003038994B585404E09748405C3738964BDB
:102E50005854491CB1F5225FECDB002116E1924881
:102E6000405C0F2819D1904B481C185C0F2814D1D6
:102E700001238E488E4C2468035500F5A2508C4CDB
:102E80002468035500F5A250894C2468035500F5C9
:102E9000A250874C246803557CE08348405CC0B94D
:102EA000814B481C185CA0B90020804B804C2468E2
:102EB000185500237F487E4C2468035500F5A25026
:102EC0007B4C2468035500F5A250794C24680355C7
:102ED00060E07548405C042814DA0120734B744CA0
:102EE0002468185500237348714C2468035500F575
:102EF000A2506F4C2468035500F5A2506C4C246816
:102F0000035547E06848405C082815DA0120674B04
:102F1000674C2468185501236648654C246803559E
:102F2000002300F5A250624C2468035500F5A2501E
:102F30005F4C246803552DE05B48405C0D2815DA92
:102F400001205A4B5A4C2468185501235948584CB3
:102F50002468035500F5A250554C246803550023FE
:102F600000F5A250524C2468035513E001204F4B4A
:102F70004F4C2468185501234E484D4C2468035586
:102F800000F5A2504A4C2468035500F5A250484C65
:102F90002468035546480068401C454B1860184695
:102FA0000068B0F5A25F70D10020186065E03F486E
:102FB0003F4B1B68C25C03463D480068401C185CE0
:102FC0003B4C246818553A480068801C1B5C374C01
:102FD00037480068401C2354234635480068801C4D
:102FE0001A543448324B1B68C25C314B1B685B1C63
:102FF000C35C2F4C246803552D4B1B689B1CC45C81
:103000002B4B1B685B1CC454294B1B689B1CC25474
:1030100000F5A250264B1B68C25C254B1B685B1C4D
:10302000C35C234C24680355214B1B689B1CC45C68
:103030001F4B1B685B1CC4541D4B1B689B1CC2545C
:1030400000F5A2501A4B1B68C25C194B1B685B1C35
:10305000C35C174C24680355154B1B689B1CC45C50
:10306000134B1B685B1CC454114B1B689B1CC25444
:103070000F480068C01C0E4B18600D480068B0F582
:10308000A25F94DB00200A4B1860891CB1F5225F17
:10309000FFF6E5AE002010BDA01600204000002085
:1030A000D01800203C000020F81A002078430020AF
:1030B00044000020B85700201CB501210420FEF771
:1030C000BFF801208DF8040000208DF806000120D3
:1030D0008DF8070003208DF805004FF48060009004
:1030E0006946FE48FDF70EFE4FF400600090694609
:1030F000FA48FDF707FE4FF4805000906946F74804
:10310000FDF700FE01210820FEF79AF8012000904B
:103110006946F348FDF7F6FD1CBD10B504460D2CBD
:1031200074D2DFE804F0AC0713202E3B49586674D4
:10313000818F9E000020EB490860EB49C1F8A8028E
:10314000EA490860E849C1F8AC0299E00020E54985
:103150000860E549C1F8A802E44908600120E24995
:10316000C1F8AC028CE00020DE490860DE49C1F8FD
:10317000A8020120DD4908600020DB49C1F8AC024B
:103180007EE00020D7490860D749C1F8A802012095
:10319000D6490860D449C1F8AC0271E00020D14999
:1031A00008600120D049C1F8A8020020CF4908607A
:1031B000CD49C1F8AC0263E00020CA490860012093
:1031C000C949C1F8A8020020C84908600120C649C1
:1031D000C1F8AC0254E00020C24908600120C24995
:1031E000C1F8A802C14908600020BF49C1F8AC027B
:1031F00046E00020BB4908600120BB49C1F8A80295
:10320000BA490860B849C1F8AC0239E037E001209A
:10321000B44908600020B449C1F8A802B349086065
:10322000B149C1F8AC022BE00120AE490860002092
:10323000AD49C1F8A802AD4908600120AA49C1F80A
:10324000AC021DE00120A74908600020A649C1F892
:10325000A8020120A54908600020A349C1F8AC02DA
:103260000EE001209F49086000209F49C1F8A80294
:1032700001209E4908609C49C1F8AC0200E000BFF3
:1032800000BF0120FFF706FC10BD10B59849087873
:103290000978491C964B1970FFF73FFF3220FFF762
:1032A000F9FB934800780D2802D10120904908705D
:1032B00010BD2DE9F0410024002700260025012043
:1032C000FFF72BFF00BF43E041F2902635E00027D7
:1032D00005E0002211461046FFF74CFD7F1C0C2F25
:1032E000F7DB344623E005EB051303EB8513DFF82A
:1032F00004C20CEB831CA4F558631CF8032005EBF7
:10330000051303EB8513DFF8ECC10CEB831CA4F56C
:10331000D8631CF8031005EB051303EB8513DFF8E6
:10332000D4C10CEB8313185DFFF724FD641C06F178
:1033300024008442D7DBA6F5D876B6F5586FC6DAF6
:10334000FFF727FD3220FFF7A5FBFFF72DFD6D1CD2
:10335000042DB9DB0220FFF7E0FE002544E041F236
:10336000B42635E0002705E0002211461046FFF79D
:1033700001FD7F1C0C2FF7DB344623E005EB051322
:1033800003EB8513DFF86CC10CEB831CA4F55863C9
:103390001CF8032005EB051303EB8513DFF854C17C
:1033A0000CEB831CA4F5D8631CF8031005EB051384
:1033B00003EB8513DFF83CC10CEB8313185DFFF7BB
:1033C000D9FC641C06F124008442D7DBA6F5D8762C
:1033D00040F6A4508642C5DAFFF7DBFC3220FFF747
:1033E00059FBFFF7E1FC6D1C042DB8DB0320FFF750
:1033F00094FE002544E041F2D82635E0002705E0A0
:10340000002211461046FFF7B5FC7F1C0C2FF7DB9E
:10341000344623E005EB051303EB8513DFF8D4C036
:103420000CEB831CA4F558631CF8032005EB051373
:1034300003EB8513DFF8BCC00CEB831CA4F5D86349
:103440001CF8031005EB051303EB8513DFF8A4C08C
:103450000CEB8313185DFFF78DFC641C06F1240050
:103460008442D7DBA6F5D87640F6C8508642C5DA46
:10347000FFF78FFC3220FFF70DFBFFF795FC6D1C6B
:10348000042DB8DB0420FFF748FE002554E041F28C
:10349000FC2645E0002705E0002211461046FFF714
:1034A00069FC7F1C0C2FF7DB344633E005EB05137A
:1034B00003EB8513DFF83CC00CEB831CA4F55863C9
:1034C0001CF8032005EB051303EB8513DFF824C07C
:1034D0000CEB831CA4F5D8630EE00000000802404A
:1034E000000C0240B0024142000041428082414251
:1034F00048000020784300201CF8031005EB05135A
:1035000003EB8513DFF894C70CEB8313185DFFF70B
:1035100031FC641C06F124008442C7DBA6F5D87692
:1035200040F6EC508642B5DAFFF733FC3220FFF765
:10353000B1FAFFF739FC6D1C042DA8DB0520FFF75D
:10354000ECFD002543E04FF4995635E0002705E0F7
:10355000002211461046FFF70DFC7F1C0C2FF7DBF5
:10356000344623E005EB051303EB8513DFF82CC786
:103570000CEB831CA4F558631CF8032005EB051322
:1035800003EB8513DFF814C70CEB831CA4F5D86399
:103590001CF8031005EB051303EB8513DFF8FCC6DD
:1035A0000CEB8313185DFFF7E5FB641C06F12400A8
:1035B0008442D7DBA6F5D876B6F5616FC6DAFFF799
:1035C000E8FB3220FFF766FAFFF7EEFB6D1C042DD7
:1035D000B9DB0620FFF7A1FD002544E041F24436A7
:1035E00035E0002705E0002211461046FFF7C2FB38
:1035F0007F1C0C2FF7DB344623E005EB051303EBB0
:103600008513DFF898C60CEB831CA4F558631CF8EF
:10361000032005EB051303EB8513DFF880C60CEBE5
:10362000831CA4F5D8631CF8031005EB051303EB0A
:103630008513DFF868C60CEB8313185DFFF79AFB60
:10364000641C06F124008442D7DBA6F5D87640F648
:1036500034608642C5DAFFF79CFB3220FFF71AFA86
:10366000FFF7A2FB6D1C042DB8DB0720FFF755FD0B
:10367000002544E041F2683635E0002705E00022ED
:1036800011461046FFF776FB7F1C0C2FF7DB344604
:1036900023E005EB051303EB8513DFF800C60CEB05
:1036A000831CA4F558631CF8032005EB051303EBFA
:1036B0008513DFF8E8C50CEB831CA4F5D8631CF870
:1036C000031005EB051303EB8513DFF8D0C50CEBF6
:1036D0008313185DFFF74EFB641C06F1240084423F
:1036E000D7DBA6F5D87640F658608642C5DAFFF7F4
:1036F00050FB3220FFF7CEF9FFF756FB6D1C042D6F
:10370000B8DB0820FFF709FD002544E041F28C36C4
:1037100035E0002705E0002211461046FFF72AFB9E
:103720007F1C0C2FF7DB344623E005EB051303EB7E
:103730008513DFF868C50CEB831CA4F558631CF8EF
:10374000032005EB051303EB8513DFF850C50CEBE5
:10375000831CA4F5D8631CF8031005EB051303EBD9
:103760008513DFF838C50CEB8313185DFFF702FBF8
:10377000641C06F124008442D7DBA6F5D87640F617
:103780007C608642C5DAFFF704FB3220FFF782F93E
:10379000FFF70AFB6D1C042DB8DB0920FFF7BDFC09
:1037A000002543E041F2B03635E0002705E0002275
:1037B00011461046FFF7DEFA7F1C0C2FF7DB34466C
:1037C00023E005EB051303EB8513DFF8D0C40CEB06
:1037D000831CA4F558631CF8032005EB051303EBC9
:1037E0008513DFF8B8C40CEB831CA4F5D8631CF870
:1037F000031005EB051303EB8513DFF8A0C40CEBF6
:103800008313185DFFF7B6FA641C06F124008442A6
:10381000D7DBA6F5D876B6F56A6FC6DAFFF7B9FA40
:103820003220FFF737F9FFF7BFFA6D1C042DB9DB23
:103830000A20FFF772FC002544E041F2D43635E05F
:10384000002705E0002211461046FFF793FA7F1C7F
:103850000C2FF7DB344623E005EB051303EB851350
:10386000DFF838C40CEB831CA4F558631CF8032064
:1038700005EB051303EB8513DFF820C40CEB831C69
:10388000A4F5D8631CF8031005EB051303EB8513AF
:10389000DFF808C40CEB8313185DFFF76BFA641CA8
:1038A00006F124008442D7DBA6F5D87640F6C46042
:1038B0008642C5DAFFF76DFA3220FFF7EBF8FFF723
:1038C00073FA6D1C042DB8DB0B20FFF726FC0025D6
:1038D00044E041F2F83635E0002705E000221146C9
:1038E0001046FFF747FA7F1C0C2FF7DB344623E026
:1038F00005EB051303EB8513DFF8A0C30CEB831C6A
:10390000A4F558631CF8032005EB051303EB85139E
:10391000DFF888C30CEB831CA4F5D8631CF80310F4
:1039200005EB051303EB8513DFF870C30CEB831372
:10393000185DFFF71FFA641C06F124008442D7DBF0
:10394000A6F5D87640F6E8608642C5DAFFF721FA98
:103950003220FFF79FF8FFF727FA6D1C042DB8DB24
:103960000C20FFF7DAFB002544E041F21C4635E06D
:10397000002705E0002211461046FFF7FBF97F1CE7
:103980000C2FF7DB344623E005EB051303EB85131F
:10399000DFF808C30CEB831CA4F558631CF8032064
:1039A00005EB051303EB8513DFF8F0C20CEB831C6A
:1039B000A4F5D8631CF8031005EB051303EB85137E
:1039C000DFF8D8C20CEB8313185DFFF7D3F9641C42
:1039D00006F124008442D7DBA6F5D87640F60C70B9
:1039E0008642C5DAFFF7D5F93220FFF753F8FFF723
:1039F000DBF96D1C042DB8DBBDE8F08110B5A848DB
:103A0000006878B9FFF7EEF9A6A0FFF7F9F9FFF71C
:103A1000FFF9FFF706FAFFF709FAFFF7EBF90120C4
:103A20009F490860FFF745FC10BD10B5A04800682D
:103A300078B9FFF7D7F99FA0FFF7E2F9FFF7E8F9A8
:103A4000FFF7EFF9FFF7F2F9FFF7D4F901209849F2
:103A50000860FFF72EFC10BD10B59948006878B9D2
:103A6000FFF7C0F997A0FFF7CBF9FFF7D1F9FFF700
:103A7000D8F9FFF7DBF9FFF7BDF90120904908609D
:103A8000FFF717FC10BD10B59148006868B9FFF743
:103A9000A9F990A0FFF7B4F9FFF7BAF9FFF7C1F958
:103AA000FFF7C4F901208A490860FFF702FC10BD46
:103AB00010B5ACB0B0228A49684603F001F9002481
:103AC00007208849086000BF1CE0FFF78BF95DF80C
:103AD0002400FFF795F9FFF79BF9FFF7A2F9FFF72D
:103AE000A5F9FFF7E6FBFFF7E4FBFFF7E2FBFFF7C3
:103AF000E0FBFFF7DEFBFFF7DCFBFFF7DAFBFFF78E
:103B0000D8FB641C2C2CE0DB2CB010BD10B50024BD
:103B100008207449086000BF0DE0FFF763F972499F
:103B200051F82400FFF76CF9FFF772F9FFF779F904
:103B3000FFF77CF9641CB4F5F97FEEDD10BD10B51C
:103B4000002407206749086000BF0DE0FFF74AF92D
:103B5000664951F82400FFF753F9FFF759F9FFF7C9
:103B600060F9FFF763F9641CC62CEFDB10BD10B5DC
:103B7000002405205B49086000BF0DE0FFF732F923
:103B80005B4951F82400FFF73BF9FFF741F9FFF7D4
:103B900048F9FFF74BF9641CB4F5847FEEDB10BDE8
:103BA00010B5002403204F49086000BF0FE0FFF765
:103BB00019F9504951F82400FFF722F9FFF728F9C5
:103BC000FFF72FF9FFF732F9FFF714F9641CC02C47
:103BD000EDDB10BD10B5002414204249086000BF81
:103BE0000FE0FFF7FFF8444951F82400FFF708F908
:103BF000FFF70EF9FFF715F9FFF718F9FFF7FAF8D5
:103C0000641CAA2CEDDB10BD10B500240A20354938
:103C1000086000BF0FE0FFF7E5F8384951F82400CD
:103C2000FFF7EEF8FFF7F4F8FFF7FBF8FFF7FEF801
:103C3000FFF7E0F8641C402CEDDB10BD10B500244C
:103C400008202849086000BF0FE0FFF7CBF82C4997
:103C500051F82400FFF7D4F8FFF7DAF8FFF7E1F89E
:103C6000FFF7E4F8FFF7C6F8641C212CEDDBFFF743
:103C70009BF86420FEF756FFFFF78BF8FFF7B2F8CA
:103C80001F49D1F88000FFF7BBF8FFF7C1F8FFF735
:103C9000C8F8FFF7CBF8FFF7ADF810BD7843002068
:103CA00080160020303A414C4C2E7478740000008D
:103CB00084160020303A4D41472E7478740000007D
:103CC00088160020303A6A6A2E747874000000006A
:103CD0007C1600204E4F4E452E7478740000000074
:103CE0007C6D0008981600204C0000201808002069
:103CF000300B0020500F002050120020F81400203C
:103D0000F815002070B5054635B1012D0CD0022DF7
:103D10000CD0032D0ED10BE002F02DFB04460CB9A4
:103D2000002070BD0120FCE70020FAE70020F8E742
:103D30000020F6E70120F4E7014621B1012904D073
:103D4000022906D103E0002070470020FCE7002094
:103D5000FAE70120F8E72DE9F041064688461746C4
:103D60001C4614B90420BDE8F08116B1012E1DD106
:103D700016E0012C09D14146384602F056FE0546B0
:103D80000DB90020EFE70120EDE722464146384615
:103D900002F06AFE05460DB90020E4E70120E2E7E3
:103DA000012C01D10020DEE70020DCE70120DAE76A
:103DB0002DE9F0410646884617461C4614B90420F2
:103DC000BDE8F08116B1012E1DD116E0012C09D1FC
:103DD0004146384602F086FE05460DB90020EFE761
:103DE0000120EDE722464146384602F0DBFE05465B
:103DF0000DB90020E4E70120E2E7012C01D1002009
:103E0000DEE70020DCE70120DAE770B505460C4666
:103E1000164645BB264802F090FC0F2C22D2DFE864
:103E200004F0080A211321191A1B21211C1D1E1F31
:103E30002000002070BD1E48406C1D49896CB0FBFD
:103E4000F1F030600020F5E71948B0F84800308004
:103E50000020EFE706E005E004E003E002E001E017
:103E600000E000BF20E0012D1CD10F2C19D2DFE8AB
:103E700004F0080A0C0E1810111218181314151655
:103E800017000020D6E70020D4E70020D2E700206A
:103E9000D0E706E005E004E003E002E001E000E036
:103EA00000BF01E00420C5E70420C3E700207047FD
:103EB0007894002070B503460C4603E014F8015BCB
:103EC00003F8015B151EA2F10102F7D170BD30B5F8
:103ED000034601E003F8011B141EA2F10102F9D10F
:103EE00030BDF0B503461C460D46002000BF161E2F
:103EF000A2F1010207D014F8017B15F801CBA7EB62
:103F00000C06301EF3D0F0BD024600E0521C1078C3
:103F100010B110788842F9D1107870472DE9F0413E
:103F200004460D46E66AAE422FD0207908B3607889
:103F30000123324604F13001FFF73AFF10B10120AE
:103F4000BDE8F08100202071D4E907100844B04298
:103F50000FD9E7780AE0E069064460780123324629
:103F600004F13001FFF724FF781EC7B2012FF2DC05
:103F700000BF55B1607801232A4604F13001FFF7F4
:103F8000EAFE08B10120DBE7E5620020D8E770B562
:103F9000044600212046FFF7C1FF0546002D59D1F8
:103FA000207803284FD1607900284CD00020E062AF
:103FB0004FF40072002104F13000FFF788FF552113
:103FC00084F82E12AA2184F82F12522084F830008F
:103FD00052213120015561213220015541213320E8
:103FE0000155722184F8141284F81512412184F8C5
:103FF0001612612184F81712217C84F81812208A85
:10400000010A84F819122069010C84F81A12206937
:10401000010E84F81B12217B84F81C12A089010A6E
:1040200084F81D12E068010C84F81E12E068010E8D
:1040300084F81F126078012304F130016269FFF7F0
:10404000B7FE00206071607800221146FFF7DDFEA8
:1040500000B10125284670BD0246891E9069801E68
:10406000884201D8002070479378906A01FB0300D2
:10407000F9E72DE9F04105460C46022C02D3A86968
:10408000A04202D80120BDE8F0812878012804D0A0
:1040900002282CD003285AD13DE0274607EB5707CA
:1040A000286A00EB57212846FFF738FF00B14EE0A1
:1040B000C7F3080105F1300010F801807F1C286A61
:1040C00000EB57212846FFF729FF00B13FE0C7F377
:1040D000080105F13000405C48EA002804F00100C6
:1040E00010B14FEA1810CEE7C8F30B00CBE7286AEF
:1040F00000EB14212846FFF711FF00B127E040F242
:10410000FF1000EA440105F130000E183078717894
:1041100040EA0120B7E7286A00EBD4112846FFF7F0
:10412000FDFE00B113E040F2FF1000EA840105F14A
:1041300030000E18F0780006B17840EA014071783E
:1041400040EA01203178084320F070409BE700BF2F
:104150004FF0FF3097E72DE9F04705460E4617462A
:10416000022E02D3A869B04202D84FF002088AE0BA
:104170002878012804D0022841D003287DD154E0BA
:10418000B14609EB5909286A00EB59212846FFF787
:10419000C5FE8046B8F1000F00D071E0C9F30801F8
:1041A00005F130000C1806F0010020B1F9B22078BA
:1041B00061F31F1000E03846207009F10109012069
:1041C0002871286A00EB59212846FFF7A7FE804690
:1041D000B8F1000F00D053E0C9F3080105F1300039
:1041E0000C1806F0010010B1C7F3071005E02078A5
:1041F00000F0F000C7F303210843207040E0286A74
:1042000000EB16212846FFF789FE8046B8F1000F23
:1042100000D035E040F2FF1000EA460105F1300021
:104220000C182770380A60702AE0286A00EBD61153
:104230002846FFF773FE8046B8F1000F00D01FE05C
:1042400040F2FF1000EA860105F130000C18E0781A
:104250000006A17840EA0140617840EA0120217817
:10426000084300F0704007432770380A6070380C2C
:10427000A070380EE07003E0FFE74FF0020800BFC7
:1042800000BF012028714046BDE8F0872DE9F041CC
:1042900004460E46022E02D3A069B04201D802277E
:1042A00025E000271FE031462046FFF7E2FE0546E5
:1042B00005B91BE0012D01D1022717E0681C08B9E0
:1042C000012713E0002231462046FFF744FF07464E
:1042D00007B10BE02069401C20B12069401C20611F
:1042E000012060712E46A069B042DCD800BF38467C
:1042F000BDE8F0812DE9F04704468946B9F1000F89
:1043000006D1E76817B1A069B84211D801270FE0BC
:1043100049462046FFF7ADFE0646022E02D2012096
:10432000BDE8F087A069B04201D93046F8E74F46B2
:104330003D4600BF6D1CA069A84204D80225BD42BD
:1043400001D90020ECE729462046FFF792FE0646F9
:1043500006B909E0701C08B1012E01D13046DFE733
:10436000BD42E7D10020DBE700BF6FF07042294675
:104370002046FFF7F0FE8046B8F1000F08D1B9F1F2
:10438000000F05D02A4649462046FFF7E4FE804646
:10439000B8F1000F09D1E5602069401C68B12069BF
:1043A000401E20610120607107E0B8F1010F02D1C9
:1043B0004FF0FF3000E0012005462846B0E770B519
:1043C00003460D46586A021D680A1E68B678B0FB9F
:1043D000F6F400BF02CA09B9002070BD8C4200D2B9
:1043E00002E0641A121DF5E700BF10682044F4E7EC
:1043F0002DE9F04104460E46E680A568012D03D064
:1044000020688069A84202D80220BDE8F0812DB959
:1044100020680078032801D12068456A65B9E56005
:1044200020680089B04201DC0220EEE72068406A83
:1044300000EB1610206120E020688078070112E070
:1044400029462068FFF715FE0546681C08B90120BB
:10445000DBE7022D03D320688069A84201D802203F
:10446000D3E7F01B86B2BE42EADAE560294620684F
:10447000FFF7F2FD00EB161020612068303006F0E7
:104480000F0100EB411060610020BEE72DE9F04113
:104490000446884600BFE088401C86B20EB1206901
:1044A00010B90420BDE8F08106F00F0000286FD19C
:1044B0002069401C2061E06828B920680089B0426A
:1044C00066DC0420EEE720688078401E00EA1610C3
:1044D00000285DD1E1682068FFF7CBFD0546012D7E
:1044E00001D80220DEE7681C08B90120DAE720685D
:1044F0008069A84246D8B8F1000F01D10420D1E765
:10450000E1682068FFF7F6FE05460DB90720C9E708
:10451000012D01D10220C5E7681C08B90120C1E7BF
:1045200000212068FFF7FAFC08B10120BAE72168F2
:1045300001F130004FF400720021FFF7C8FC29465A
:104540002068FFF789FD2168C862002710E001207C
:104550002168087100212068FFF7E0FC08B1012004
:10456000A0E72068C06A401C2168C862781CC7B2F6
:1045700020688078B842EADC2068C06AC01B2168E5
:10458000C86200BFE56029462068FFF765FD20612D
:10459000E6802068303006F00F0100EB41106061CA
:1045A00000207FE72DE9F041044600212046FFF777
:1045B0001FFF054615B12846BDE8F08100BF2169FF
:1045C0002068FFF7ABFC054605B116E06669377851
:1045D0000FB9042511E0F07A00F0080030B90B2281
:1045E0003046A169FFF77DFC00B906E000212046B6
:1045F000FFF74CFF0546002DE1D000BF2846DBE762
:104600002DE9F041044604251BE021692068FFF7ED
:1046100085FC054605B117E067693E780EB90425AB
:1046200012E0E52E06D02E2E04D0F87A00F0080015
:1046300000B909E000212046FFF728FF054605B133
:1046400002E020690028E0D100BF0DB10020206108
:104650002846BDE8F0812DE9F041044600212046BE
:10466000FFF7C6FE0546ADB900BF21692068FFF718
:1046700055FC054605B10CE060690678E52E00D0D2
:1046800006B906E001212046FFF700FF0546002D90
:10469000EBD000BF9DB921692068FFF73FFC0546BC
:1046A0006DB96769202200213846FFF710FC0B2204
:1046B0003846A169FFF7FEFB0120216808712846F2
:1046C000BDE8F08170B50446E1882046FFF790FE12
:1046D00005465DB921692068FFF720FC05462DB924
:1046E000E52061690870012021680871284670BDC5
:1046F0002DE9F35F8A46DAF8007000E07F1C387815
:104700002F28FBD038785C28F8D0009886690B22D7
:1047100020213046FFF7DBFB0025A946AB464FF0D2
:10472000080800BF58460BF1010B3C5C202C03DD50
:104730002F2C01D05C2C00D136E02E2C01D0C145AD
:104740000ED3B8F1080F01D12E2C02D00620BDE8FF
:10475000FC9F4FF008094FF00B08A806050EE1E793
:10476000802C05DB45F00305A4F18000F7490C5CC3
:104770002146F7A0FFF7C8FB08B10620E7E7412C68
:1047800004DB5A2C02DC45F0020508E0612C06DB54
:104790007A2C04DC45F00105A4F12000C4B248469F
:1047A00009F101093454BDE700BF07EB0B00CAF85B
:1047B0000000202C01DC042000E000200446B9F1B8
:1047C000000F01D10620C2E73078E52801D105208D
:1047D0003070B8F1080F01D1A806050E05F00300EE
:1047E000012801D144F0100405F00C00042801D187
:1047F00044F00804F4720020A9E7F0B505460B4622
:1048000003F109022F69002F40D06869067B00215F
:104810000AE0445C202C00D108E0052C00D1E524FE
:1048200000BF02F8014B491C0829F2D300BF077AE8
:10483000202F0FD02E2702F8017B082107E0445CCF
:10484000202C00D105E000BF02F8014B491C0B29C8
:10485000F5D300BFC77A1F72C77F4FEA076C877F07
:104860004CEA074C477F4CEA072790F81CC047EA00
:104870000C071F6090F818C0477E4CEA07279F80FE
:1048800090F816C0C77D4CEA0727DF800027177015
:10489000F0BD2DE9F3410446019800782F2803D09C
:1048A000019800785C2802D10198401C01900020FA
:1048B000A06001980078202807D200212046FFF749
:1048C00097FD0646002060612FE000BF01A9204649
:1048D000FFF70EFF064606B126E02046FFF762FE10
:1048E0000646A069C77A46B1042E00D01CE000BF7E
:1048F00007F0040000B9052616E007F0040000B137
:1049000012E06569E87A00F0100008B905260BE0AE
:10491000A97EE87E41EA00212A7D687D42EA0020E6
:1049200041EA0040A060D1E700BF3046BDE8FC810D
:1049300070B504460D46607801232A4604F1300123
:10494000FFF709FA08B1032070BD94F82E1294F80D
:104950002F0241EA00204AF65521884201D0022068
:10496000F2E794F86900010694F8680041EA004112
:1049700094F8670041EA002094F86610084320F09C
:104980007F407749884201D10020DDE794F8850017
:10499000010694F8840041EA004194F8830041EA5A
:1049A000002094F88210084320F07F406C49884230
:1049B00001D10020C8E70120C6E72DE9F74F88B0F4
:1049C000089800680190019800783038079007989F
:1049D00009280AD8019840783A2806D10198801C05
:1049E000019008990198086001E00020079007985D
:1049F00018B10B200BB0BDE8F08F5A49079851F859
:104A00002040099804600CB90C20F3E7207878B1B5
:104A10006078FFF791F9804608F0010040B90A98E4
:104A200020B108F0040008B10A20E3E70020E1E724
:104A300000202070079860706078FFF763F9804667
:104A400008F0010008B10320D4E70A9820B108F06B
:104A5000040008B10A20CDE74FF0000B594620466C
:104A6000FFF766FF054600BF012D21D14FF0000A78
:104A7000BAF1000F03D0AAF1010000F0FF0A4FF4D1
:104A8000DF7000EB0A1104F130000F18387978B1AB
:104A9000F87A0106B87A41EA0041787A41EA0020C2
:104AA000397A40EA010B59462046FFF741FF054697
:104AB000032D01D101209DE70DB10D209AE73B2088
:104AC000015D94F83C0041EA0020B0F5007F01D080
:104AD0000D208FE74620015D94F8470041EA002948
:104AE000B9F1000F0ED194F85700010694F8560062
:104AF00041EA004194F8550041EA002094F854102E
:104B000040EA0109C4F81C904020065DE670012EC1
:104B100003D0022E01D00D206CE709FB06F93D20E1
:104B2000005D0646A07016B1701E304008B10D2021
:104B300060E74120015D94F8420041EA00202081B5
:104B4000207A00F00F0078B10D2053E72C6E00089A
:104B5000222A2B2C3A3B3C3D3E3F5B5D7C7F000094
:104B6000464154008C1600204320015D94F8440017
:104B700041EA00200690069870B994F853000106A7
:104B800094F8520041EA004194F8510041EA0020B3
:104B900094F85010084306903E20015D94F83F00C1
:104BA00041EA00200290029808B90D2022E70298FD
:104BB0004844218900EB11100590DDE9050181428F
:104BC00001D20D2016E7DDE90510401AA178B0FBEF
:104BD000F1F00490049808B90D200BE7012540F688
:104BE000F6710498884200D302254FF6F6710498B6
:104BF000884200D303250498801CA061059858447E
:104C0000A062029858442062032D16D1208908B171
:104C10000D20EFE694F85F00010694F85E0041EA8B
:104C2000004194F85D0041EA002094F85C100843CC
:104C30006062A0698000039014E0208908B90D200B
:104C4000D8E6206A48446062022D02D1A069400083
:104C500007E0207E00F00100A16901EB410100EBBB
:104C600051000390E169039800F2FF10B1EB502F5F
:104C700001D20D20BEE64FF0FF3020610020E06041
:104C8000032D5CD1607194F8601094F8610041EAE2
:104C90000020584460616078012304F130016269AA
:104CA000FFF759F8F0BB94F82E1294F82F0241EA5E
:104CB00000204AF65521884241D13320005D01068B
:104CC0003220005D41EA00413120005D41EA0020D0
:104CD00094F830100843FE49884230D194F8170206
:104CE000010694F8160241EA004194F8150241EADF
:104CF000002094F814120843F64988421FD194F812
:104D00001F02010694F81E0241EA004194F81D02B8
:104D100041EA002094F81C120843E06094F81B025A
:104D2000010600E00BE094F81A0241EA004194F811
:104D3000190241EA002094F81812084320612570F6
:104D4000E5480088401C80B2E3490880E0800020EC
:104D5000E062207100BF4DE670B504460D4624B1F7
:104D6000207810B1E088A84201D0092070BD607899
:104D7000FEF7E2FF00F0010008B10320F6E7002093
:104D8000F4E70246012A01DB0B207047D34850F8B4
:104D900022300BB10020187009B100200870CF48F4
:104DA00040F822100020F0E72DE9F7438AB00546CD
:104DB00016460020286006F01F0626F0010203A90F
:104DC0000BA8FFF7FAFD0746CDF824D027B903A8B2
:104DD0000B99FFF75EFD0746089C0FB904B906273B
:104DE00006F01C00002858D04FB1042F03D103A8AF
:104DF000FFF731FC074646F00806089C09E0E07A18
:104E000000F0110008B1072703E006F0040000B12C
:104E10000827002F40D106F0080000283CD0FFF7FB
:104E200045F8804684F80E804FEA1821E1734FEA76
:104E3000184121744FEA186161740020E0722077F4
:104E400000216177A177E177A17EE07E41EA002130
:104E5000227D607D42EA002041EA00490020A076E0
:104E60000021E17620756175012003990871B9F17F
:104E7000000F11D00398D0F82C8049460398FFF713
:104E800005FA074647B9A9F101000399C8604146F0
:104E90000398FFF743F807460EE06FB9E07A00F099
:104EA000100008B1042707E006F0020020B1E07A04
:104EB00000F0010000B1072747B906F0080008B16B
:104EC00046F020060398C06AE8612C62FFB9AE7113
:104ED000A17EE07E41EA0021227D607D42EA002041
:104EE00041EA00402861E07F0106A07F41EA0041DD
:104EF000607F41EA0020217F0843E8600020A8602D
:104F0000A8616862039828600398C088A880384622
:104F10000DB0BDE8F0832DE9FF4F83B00446154680
:104F20009A46DDF810B00020CAF80000A188206879
:104F3000FFF712FF0290029818B1029807B0BDE87F
:104F4000F08FA07900F0800008B10220F6E7A07988
:104F500000F0010008B90720F0E7D4E90210401A78
:104F600000900098854200D9009DC6E02089C0F3DA
:104F70000800002870D120688078401EA16800EAEF
:104F8000512000F0FF09B9F1000F25D1A06810B938
:104F9000206901900CE0606A28B12046A168FFF703
:104FA0000EFA019004E061692068FFF762F8019051
:104FB0000198022805D2A07940F08000A07102205B
:104FC000BCE70198401C28B9A07940F08000A0718E
:104FD0000120B3E70198606161692068FFF73CF840
:104FE00006462EB9A07940F08000A0710220A5E706
:104FF0004E444FEA5528B8F1000F2ED009EB0800B7
:1050000021688978884203D920688078A0EB090854
:1050100008F0FF032168487832465946FEF79BFEA8
:1050200028B1A07940F08000A071012086E7A07926
:1050300000F0400068B1A069801B404509D2A16919
:10504000891B0BEB41204FF4007204F12801FEF79D
:1050500031FF4FEA482746E029E0A069B04225D059
:10506000A07900F0400090B121684878012304F154
:105070002801A269FEF79CFE28B1A07940F08000CB
:10508000A07101205AE7A07920F04000A0712168AA
:1050900048780123324604F12801FEF75CFE28B16E
:1050A000A07940F08000A071012047E7A661208927
:1050B000C0F30800C0F50077AF4200D92F46208921
:1050C000C0F3080204F1280011183A46584607E0D8
:1050D0005252614172724161901600208C1600207C
:1050E000FEF7E8FE00BFBB44A0683844A060DAF8D1
:1050F00000003844CAF80000ED1B002D7FF436AFE5
:1051000000201BE72DE9FF4F83B0044615469B4660
:10511000049801900020CBF80000A1882068FFF7D8
:105120001BFE0290029818B1029807B0BDE8F08FFC
:10513000A07900F0800008B10220F6E7A07900F025
:10514000020008B90720F0E7E0682844E1688842D7
:1051500000D20025D6E02089C0F3080000287DD1C8
:1051600020688078401EA16800EA512000F0FF0A04
:10517000BAF1000F32D1A06858B9D4F81080B8F154
:10518000000F13D100212068FFF7B4F8804620619A
:105190000CE0606A28B12046A168FFF710F980464C
:1051A00004E061692068FFF7A5F88046B8F1000FB8
:1051B00000D1AAE0B8F1010F05D1A07940F080003C
:1051C000A0710220B1E708F1010028B9A07940F0F0
:1051D0008000A0710120A8E7C4F81480A07900F035
:1051E000400090B121684878012304F12801A269A8
:1051F000FEF7DEFD28B1A07940F08000A07101200B
:1052000093E7A07920F04000A07161692068FEF763
:1052100023FF06462EB9A07940F08000A07102203D
:1052200083E756444FEA5529B9F1000F30D00AEB15
:10523000090021688978884203D920688078A0EB2A
:105240000A0909F0FF032168487832460199FEF700
:10525000AFFD38B1A07940F0800000E02FE0A071F0
:10526000012062E7A069801B48450ED2A069801B1F
:10527000019A02EB40214FF4007204F12800FEF77E
:1052800019FEA07920F04000A0714FEA49272DE0D7
:10529000A069B04212D0D4E9020188420ED221683E
:1052A00048780123324604F12801FEF754FD28B165
:1052B000A07940F08000A071012036E7A661208926
:1052C000C0F30800C0F50077AF4200D92F4621890E
:1052D000C1F3080204F1280150183A460199FEF77B
:1052E000E9FDA07940F04000A07100BF019838446A
:1052F0000190A0683844A060DBF800003844CBF887
:105300000000ED1B002D7FF426AF00BFD4E90201A1
:10531000884201D9A068E060A07940F02000A07127
:10532000002002E72DE9F0410446A1882068FFF73C
:1053300013FD0746002F4FD1A07900F02000002870
:105340004AD0A07900F0400078B121684878012364
:1053500004F12801A269FEF72BFD10B10120BDE880
:10536000F081A07920F04000A071E1692068FEF78B
:10537000D5FD0746002F2FD1256AE87A40F020009E
:10538000E872207B2877A089010A6977E068010C20
:10539000A977E068010EE977207CA876208A010AC7
:1053A000E9762069000C28752069010E6975FEF701
:1053B0007DFD0646AE75310AE975310C2976310E50
:1053C0006976A07920F02000A07101202168087181
:1053D0002068FEF7DCFD07463846C0E770B5044696
:1053E0002046FFF79FFF05460DB9002020602846A4
:1053F00070BD2DE9FE4F04460D46A1882068FFF7D9
:10540000ABFC0290029810B10298BDE8FE8FA07923
:1054100000F0800008B10220F7E7606A00287DD024
:10542000681C002841D1D4F8248058F804AB4FF010
:10543000020926696EB300BF00964FF0000B09F118
:10544000020900BF01960BF1010B31462068FEF7FF
:1054500010FE0646012E05D8A07940F08000A0710C
:105460000220D2E7701C28B9A07940F08000A0711A
:105470000120CAE70198401C8642E3D0D14504D8F8
:1054800048F804BB009848F8040B20688069B042D3
:10549000D2D8606AC0F80090D14503D80020C8F87F
:1054A000000050E0112002904DE0E068A84200D2D8
:1054B000E568A560002D46D0691E2046FEF77FFFF7
:1054C000606161692068FEF7C7FD07462FB9A079C2
:1054D00040F08000A071022097E720688078401E8D
:1054E000691E00EA512007442089C0F3080050B328
:1054F000A069B84227D0A07900F0400098B1216897
:105500004878012304F12801A269FEF751FC30B16B
:10551000A07940F08000A071012076E714E0A07926
:1055200020F04000A0712168487801233A4604F138
:105530002801FEF710FC28B1A07940F08000A0718E
:10554000012062E7A761C1E0E068A84204D2A07927
:1055500000F0020000B9E568D4F808904FF00008A8
:10556000C4F80880002D77D0206880784702B9F110
:10557000000F11D0681EB0FBF7F1A9F10100B0FBDC
:10558000F7F0814208D3A9F10100791E8843A06099
:10559000A0682D1A666918E02669AEB90021206856
:1055A000FEF7A8FE0646012E05D1A07940F0800046
:1055B000A071022029E7701C28B9A07940F0800072
:1055C000A071012021E726616661EEB329E0A07990
:1055D00000F0020038B131462068FEF78BFE064627
:1055E00036B93D461FE031462068FEF742FD0646CB
:1055F000701C28B9A07940F08000A071012004E758
:10560000012E03D920688069B04205D8A07940F006
:105610008000A0710220F8E66661A0683844A060AE
:10562000ED1BBD42D3D800BFA0682844A060C5F3DD
:10563000080048B131462068FEF70EFD8046B8F1FB
:10564000000F07D1A07900E006E040F08000A071D3
:105650000220DAE608EB55282089C0F3080050B391
:10566000A069404527D0A07900F0400090B12168A2
:105670004878012304F12801A269FEF799FB28B1BB
:10568000A07940F08000A0710120BEE6A07920F052
:105690004000A071216848780123424604F12801A6
:1056A000FEF759FB28B1A07940F08000A0710120DD
:1056B000ABE6C4F81880D4E90201884205D9A06895
:1056C000E060A07940F02000A07100BF02989CE645
:1056D00033B583B004460022214604A8FFF76DF9D4
:1056E00005464DBBC4F818D020460499FFF7D1F801
:1056F0000546F5B9606998B16069C07A00F010009C
:1057000068B16069817EC07E41EA00216069027DE6
:10571000407D42EA002041EA0040A06000E005250B
:105720003DB92068C088A08000212046FEF760FEB9
:105730000546042D00D10525284605B030BDFEB52F
:1057400004460E46A1882068FFF706FB054605BB08
:105750002EB900212046FEF74BFE054619E0C4F89D
:1057600018D02046FEF74CFF0546042D02D100203C
:10577000206100256DB931462046FFF73EF8002133
:105780002046FEF783FE0546042D02D1002020614D
:1057900000252846FEBD33B58BB00D46002204A976
:1057A0000BA8FFF70AF904467CB901A80A9004A8DF
:1057B0000B99FFF76EF804463CB9099820B12946C9
:1057C00004A8FFF71AF800E0062420460DB030BD0B
:1057D0002DE9F74F82B08B4614460022214602A8DD
:1057E000FFF7EBF801900198002877D12068016954
:1057F0008069801E814204D820680069CBF80000CF
:105800006CE0206890F800A00026BAF1010F1DD1CD
:10581000022700BF39462068FEF72BFC804608F1BE
:10582000010010B9012001900FE0B8F1010F02D181
:105830000220019009E0B8F1000F00D1761C781C1D
:105840000746216889698842E4D33DE0206887697A
:105850002068006A00904FF00009002500BFB9F1F0
:10586000000F0FD1009A531C114600932068FEF7D9
:1058700055FB0190019800B125E0206800F130054A
:105880004FF40079BAF1020F09D12878697840EA1B
:10589000012000B9761CAD1CA9F1020910E0E878DE
:1058A0000006A97840EA0140697840EA0120297899
:1058B000084320F0704000B9761C2D1DA9F10409A1
:1058C000781E071ECBD100BF20680661BAF1030F16
:1058D00002D1012021684871CBF80060019805B021
:1058E000BDE8F08F70B50446A1882068FFF734FA50
:1058F000054655B9A07900F0800008B1022504E002
:10590000A07900F0020000B90725002D36D1D4E9B6
:10591000021088422DD9A068E060A07940F02000F4
:10592000A071A06838B921692068FEF7AFFC054670
:10593000002020611DE061692068FEF79AFB0646A1
:105940000025701C00B90125012E00D1022585B962
:1059500020688069B0420CD96FF07042616920689C
:10596000FEF7F9FB054625B931462068FEF78EFCA7
:1059700005461DB1A07940F08000A071284670BD99
:1059800071B591B001220AA911A8FFF716F80446D3
:10599000002C4BD1CDF840D00AA81199FEF779FF21
:1059A000044600BF002C41D10F9D0DB9062404E030
:1059B000E87A00F0010000B10724A97EE87E41EA00
:1059C00000212A7D687D42EA002041EA0046E4B9D0
:1059D000E87A00F01000C0B1022E01D2022414E0D7
:1059E0001C220AA903A8FEF765FA0596022103A85E
:1059F000FEF7FEFC044644B903A8FEF701FE044688
:105A000004B90724042C00D100247CB90AA8FEF7AD
:105A100059FE044654B926B131460A98FEF736FCC1
:105A200004461CB90A98FEF7B2FA0446204612B0A2
:105A300070BD2DE9F1478BB0FEF738FA0746012219
:105A400004A90BA8FEF7B9FF0646002E7BD101A8DA
:105A50000A9004A80B99FEF71CFF064606B9082613
:105A600000BF042EF2D100210498FEF743FC054646
:105A7000002605B90726012D00D10226681C00B9B1
:105A8000012626B900210498FEF748FA0646002EA2
:105A900068D129460498FEF7DFFA8246049800F19F
:105AA00030044FF4007200212046FEF710FA0B225A
:105AB00020212046FEF70BFA2E2020701020E072E5
:105AC000A775390AE175390C2176390E6176A5760C
:105AD000290AE176280C2075290E617520222146BD
